{
  "_format": "hh-sol-artifact-1",
  "contractName": "Voting",
  "sourceName": "contracts/Voting.sol",
  "abi": [
    {
      "inputs": [
        {
          "internalType": "address",
          "name": "_relayer",
          "type": "address"
        }
      ],
      "stateMutability": "nonpayable",
      "type": "constructor"
    },
    {
      "anonymous": false,
      "inputs": [
        {
          "indexed": true,
          "internalType": "uint256",
          "name": "electionId",
          "type": "uint256"
        },
        {
          "indexed": false,
          "internalType": "string",
          "name": "newCandidate",
          "type": "string"
        }
      ],
      "name": "CandidateAdded",
      "type": "event"
    },
    {
      "anonymous": false,
      "inputs": [
        {
          "indexed": true,
          "internalType": "uint256",
          "name": "electionId",
          "type": "uint256"
        },
        {
          "indexed": false,
          "internalType": "string",
          "name": "name",
          "type": "string"
        },
        {
          "indexed": false,
          "internalType": "string[]",
          "name": "candidates",
          "type": "string[]"
        },
        {
          "indexed": false,
          "internalType": "uint256",
          "name": "startTime",
          "type": "uint256"
        },
        {
          "indexed": false,
          "internalType": "uint256",
          "name": "endTime",
          "type": "uint256"
        }
      ],
      "name": "ElectionCreated",
      "type": "event"
    },
    {
      "anonymous": false,
      "inputs": [
        {
          "indexed": true,
          "internalType": "uint256",
          "name": "electionId",
          "type": "uint256"
        }
      ],
      "name": "ElectionDisabled",
      "type": "event"
    },
    {
      "anonymous": false,
      "inputs": [
        {
          "indexed": true,
          "internalType": "uint256",
          "name": "electionId",
          "type": "uint256"
        }
      ],
      "name": "ElectionEnabled",
      "type": "event"
    },
    {
      "anonymous": false,
      "inputs": [
        {
          "indexed": true,
          "internalType": "uint256",
          "name": "electionId",
          "type": "uint256"
        },
        {
          "indexed": false,
          "internalType": "string",
          "name": "newName",
          "type": "string"
        }
      ],
      "name": "ElectionNameUpdated",
      "type": "event"
    },
    {
      "anonymous": false,
      "inputs": [
        {
          "indexed": true,
          "internalType": "uint256",
          "name": "electionId",
          "type": "uint256"
        },
        {
          "indexed": true,
          "internalType": "address",
          "name": "voter",
          "type": "address"
        },
        {
          "indexed": false,
          "internalType": "string",
          "name": "candidate",
          "type": "string"
        }
      ],
      "name": "VotedMeta",
      "type": "event"
    },
    {
      "inputs": [
        {
          "internalType": "uint256",
          "name": "electionId",
          "type": "uint256"
        },
        {
          "internalType": "string",
          "name": "candidate",
          "type": "string"
        }
      ],
      "name": "addCandidate",
      "outputs": [],
      "stateMutability": "nonpayable",
      "type": "function"
    },
    {
      "inputs": [
        {
          "internalType": "string",
          "name": "name",
          "type": "string"
        },
        {
          "internalType": "string[]",
          "name": "candidateNames",
          "type": "string[]"
        },
        {
          "internalType": "uint256",
          "name": "startTime",
          "type": "uint256"
        },
        {
          "internalType": "uint256",
          "name": "endTime",
          "type": "uint256"
        }
      ],
      "name": "createElection",
      "outputs": [],
      "stateMutability": "nonpayable",
      "type": "function"
    },
    {
      "inputs": [
        {
          "internalType": "uint256",
          "name": "electionId",
          "type": "uint256"
        }
      ],
      "name": "disableElection",
      "outputs": [],
      "stateMutability": "nonpayable",
      "type": "function"
    },
    {
      "inputs": [
        {
          "internalType": "uint256",
          "name": "electionId",
          "type": "uint256"
        }
      ],
      "name": "enableElection",
      "outputs": [],
      "stateMutability": "nonpayable",
      "type": "function"
    },
    {
      "inputs": [
        {
          "internalType": "uint256",
          "name": "electionId",
          "type": "uint256"
        }
      ],
      "name": "getCandidates",
      "outputs": [
        {
          "internalType": "string[]",
          "name": "",
          "type": "string[]"
        }
      ],
      "stateMutability": "view",
      "type": "function"
    },
    {
      "inputs": [
        {
          "internalType": "uint256",
          "name": "electionId",
          "type": "uint256"
        }
      ],
      "name": "getElection",
      "outputs": [
        {
          "internalType": "string",
          "name": "",
          "type": "string"
        },
        {
          "internalType": "string[]",
          "name": "",
          "type": "string[]"
        },
        {
          "internalType": "uint256",
          "name": "",
          "type": "uint256"
        },
        {
          "internalType": "uint256",
          "name": "",
          "type": "uint256"
        },
        {
          "internalType": "bool",
          "name": "",
          "type": "bool"
        }
      ],
      "stateMutability": "view",
      "type": "function"
    },
    {
      "inputs": [
        {
          "internalType": "uint256",
          "name": "electionId",
          "type": "uint256"
        },
        {
          "internalType": "string",
          "name": "candidate",
          "type": "string"
        }
      ],
      "name": "getVoteCount",
      "outputs": [
        {
          "internalType": "uint256",
          "name": "",
          "type": "uint256"
        }
      ],
      "stateMutability": "view",
      "type": "function"
    },
    {
      "inputs": [
        {
          "internalType": "uint256",
          "name": "electionId",
          "type": "uint256"
        },
        {
          "internalType": "address",
          "name": "voter",
          "type": "address"
        }
      ],
      "name": "hasVoted",
      "outputs": [
        {
          "internalType": "bool",
          "name": "",
          "type": "bool"
        }
      ],
      "stateMutability": "view",
      "type": "function"
    },
    {
      "inputs": [],
      "name": "nextElectionId",
      "outputs": [
        {
          "internalType": "uint256",
          "name": "",
          "type": "uint256"
        }
      ],
      "stateMutability": "view",
      "type": "function"
    },
    {
      "inputs": [],
      "name": "trustedRelayer",
      "outputs": [
        {
          "internalType": "address",
          "name": "",
          "type": "address"
        }
      ],
      "stateMutability": "view",
      "type": "function"
    },
    {
      "inputs": [
        {
          "internalType": "uint256",
          "name": "electionId",
          "type": "uint256"
        },
        {
          "internalType": "string",
          "name": "newName",
          "type": "string"
        }
      ],
      "name": "updateElectionName",
      "outputs": [],
      "stateMutability": "nonpayable",
      "type": "function"
    },
    {
      "inputs": [
        {
          "internalType": "uint256",
          "name": "electionId",
          "type": "uint256"
        },
        {
          "internalType": "string",
          "name": "candidate",
          "type": "string"
        },
        {
          "internalType": "address",
          "name": "voter",
          "type": "address"
        },
        {
          "internalType": "bytes",
          "name": "signature",
          "type": "bytes"
        }
      ],
      "name": "voteMeta",
      "outputs": [],
      "stateMutability": "nonpayable",
      "type": "function"
    }
  ],
  "bytecode": "0x6080604052600180553480156200001557600080fd5b50604051620029b2380380620029b283398181016040528101906200003b9190620000ed565b80600260006101000a81548173ffffffffffffffffffffffffffffffffffffffff021916908373ffffffffffffffffffffffffffffffffffffffff160217905550506200011f565b600080fd5b600073ffffffffffffffffffffffffffffffffffffffff82169050919050565b6000620000b58262000088565b9050919050565b620000c781620000a8565b8114620000d357600080fd5b50565b600081519050620000e781620000bc565b92915050565b60006020828403121562000106576200010562000083565b5b60006200011684828501620000d6565b91505092915050565b612883806200012f6000396000f3fe608060405234801561001057600080fd5b50600436106100b45760003560e01c80635313837b116100715780635313837b146101895780635c8fe557146101a75780636f1fe861146101c35780638596c226146101df5780639d710777146101fd578063dd61a65d14610231576100b4565b8063061dbcb3146100b95780631750a3d0146100d55780633e39a7a5146100f1578063438596321461012157806347b01f99146101515780634e429b4d1461016d575b600080fd5b6100d360048036038101906100ce919061170c565b610261565b005b6100ef60048036038101906100ea91906117ab565b610671565b005b61010b60048036038101906101069190611807565b610813565b6040516101189190611975565b60405180910390f35b61013b60048036038101906101369190611997565b610963565b60405161014891906119f2565b60405180910390f35b61016b60048036038101906101669190611af3565b610a2f565b005b61018760048036038101906101829190611807565b610c87565b005b610191610ddd565b60405161019e9190611ba1565b60405180910390f35b6101c160048036038101906101bc9190611807565b610de3565b005b6101dd60048036038101906101d891906117ab565b610f39565b005b6101e761108a565b6040516101f49190611bcb565b60405180910390f35b61021760048036038101906102129190611807565b6110b0565b604051610228959493929190611c30565b60405180910390f35b61024b600480360381019061024691906117ab565b6112c7565b6040516102589190611ba1565b60405180910390f35b600260009054906101000a900473ffffffffffffffffffffffffffffffffffffffff1673ffffffffffffffffffffffffffffffffffffffff163373ffffffffffffffffffffffffffffffffffffffff16146102f1576040517f08c379a00000000000000000000000000000000000000000000000000000000081526004016102e890611cdd565b60405180910390fd5b60008085815260200190815260200160002060040160009054906101000a900460ff16610353576040517f08c379a000000000000000000000000000000000000000000000000000000000815260040161034a90611d49565b60405180910390fd5b600080600086815260200190815260200160002090508060070160009054906101000a900460ff16156103bb576040517f08c379a00000000000000000000000000000000000000000000000000000000081526004016103b290611db5565b60405180910390fd5b8060050154421015610402576040517f08c379a00000000000000000000000000000000000000000000000000000000081526004016103f990611e21565b60405180910390fd5b8060060154421115610449576040517f08c379a000000000000000000000000000000000000000000000000000000000815260040161044090611e8d565b60405180910390fd5b8060030160008473ffffffffffffffffffffffffffffffffffffffff1673ffffffffffffffffffffffffffffffffffffffff16815260200190815260200160002060009054906101000a900460ff16156104d8576040517f08c379a00000000000000000000000000000000000000000000000000000000081526004016104cf90611ef9565b60405180910390fd5b600061050f868686306040516020016104f49493929190611fbe565b60405160208183030381529060405280519060200120611365565b90508373ffffffffffffffffffffffffffffffffffffffff166105328285611395565b73ffffffffffffffffffffffffffffffffffffffff1614610588576040517f08c379a000000000000000000000000000000000000000000000000000000000815260040161057f90612054565b60405180910390fd5b60018260030160008673ffffffffffffffffffffffffffffffffffffffff1673ffffffffffffffffffffffffffffffffffffffff16815260200190815260200160002060006101000a81548160ff021916908315150217905550600182600201866040516105f69190612074565b9081526020016040518091039020600082825461061391906120ba565b925050819055508373ffffffffffffffffffffffffffffffffffffffff16867f8a4a10578e3efa396e6e42fa898f3928498e68c4c887cbdd0e425020053eac498760405161066191906120ee565b60405180910390a3505050505050565b600260009054906101000a900473ffffffffffffffffffffffffffffffffffffffff1673ffffffffffffffffffffffffffffffffffffffff163373ffffffffffffffffffffffffffffffffffffffff1614610701576040517f08c379a00000000000000000000000000000000000000000000000000000000081526004016106f89061215c565b60405180910390fd5b60008083815260200190815260200160002060040160009054906101000a900460ff16610763576040517f08c379a000000000000000000000000000000000000000000000000000000000815260040161075a90611d49565b60405180910390fd5b6000806000848152602001908152602001600020905080600101829080600181540180825580915050600190039060005260206000200160009091909190915090816107af9190612388565b50600081600201836040516107c49190612074565b908152602001604051809103902081905550827fe83b2a43e7e82d975c8a0a6d2f045153c869e111136a34d1889ab7b598e396a38360405161080691906120ee565b60405180910390a2505050565b606060008083815260200190815260200160002060040160009054906101000a900460ff16610877576040517f08c379a000000000000000000000000000000000000000000000000000000000815260040161086e90611d49565b60405180910390fd5b600080838152602001908152602001600020600101805480602002602001604051908101604052809291908181526020016000905b828210156109585783829060005260206000200180546108cb906121ab565b80601f01602080910402602001604051908101604052809291908181526020018280546108f7906121ab565b80156109445780601f1061091957610100808354040283529160200191610944565b820191906000526020600020905b81548152906001019060200180831161092757829003601f168201915b5050505050815260200190600101906108ac565b505050509050919050565b600080600084815260200190815260200160002060040160009054906101000a900460ff166109c7576040517f08c379a00000000000000000000000000000000000000000000000000000000081526004016109be90611d49565b60405180910390fd5b60008084815260200190815260200160002060030160008373ffffffffffffffffffffffffffffffffffffffff1673ffffffffffffffffffffffffffffffffffffffff16815260200190815260200160002060009054906101000a900460ff16905092915050565b600260009054906101000a900473ffffffffffffffffffffffffffffffffffffffff1673ffffffffffffffffffffffffffffffffffffffff163373ffffffffffffffffffffffffffffffffffffffff1614610abf576040517f08c379a0000000000000000000000000000000000000000000000000000000008152600401610ab6906124a6565b60405180910390fd5b818111610b01576040517f08c379a0000000000000000000000000000000000000000000000000000000008152600401610af890612512565b60405180910390fd5b600060016000815480929190610b1690612532565b9190505590506000806000838152602001908152602001600020905085816000019081610b439190612388565b5060018160040160006101000a81548160ff02191690831515021790555083816005018190555082816006018190555060008160070160006101000a81548160ff02191690831515021790555060005b8551811015610c405781600101868281518110610bb357610bb261257a565b5b6020026020010151908060018154018082558091505060019003906000526020600020016000909190919091509081610bec9190612388565b50600082600201878381518110610c0657610c0561257a565b5b6020026020010151604051610c1b9190612074565b9081526020016040518091039020819055508080610c3890612532565b915050610b93565b50817fcefccaf67e689381c5f84f3244b0d41636efb285a074c5bcb4f6d79c7804553a87878787604051610c7794939291906125a9565b60405180910390a2505050505050565b600260009054906101000a900473ffffffffffffffffffffffffffffffffffffffff1673ffffffffffffffffffffffffffffffffffffffff163373ffffffffffffffffffffffffffffffffffffffff1614610d17576040517f08c379a0000000000000000000000000000000000000000000000000000000008152600401610d0e90612648565b60405180910390fd5b60008082815260200190815260200160002060040160009054906101000a900460ff16610d79576040517f08c379a0000000000000000000000000000000000000000000000000000000008152600401610d7090611d49565b60405180910390fd5b6000806000838152602001908152602001600020905060018160070160006101000a81548160ff021916908315150217905550817f7cdb4311118a40732727a2c3b4480ce55819735f2f03ad57026a3442ec79196160405160405180910390a25050565b60015481565b600260009054906101000a900473ffffffffffffffffffffffffffffffffffffffff1673ffffffffffffffffffffffffffffffffffffffff163373ffffffffffffffffffffffffffffffffffffffff1614610e73576040517f08c379a0000000000000000000000000000000000000000000000000000000008152600401610e6a906126b4565b60405180910390fd5b60008082815260200190815260200160002060040160009054906101000a900460ff16610ed5576040517f08c379a0000000000000000000000000000000000000000000000000000000008152600401610ecc90611d49565b60405180910390fd5b6000806000838152602001908152602001600020905060008160070160006101000a81548160ff021916908315150217905550817f6e1fdbc32ff0a4988c4cea5baeabc62169d9d110868bc40e5c6e9d73920c68f960405160405180910390a25050565b600260009054906101000a900473ffffffffffffffffffffffffffffffffffffffff1673ffffffffffffffffffffffffffffffffffffffff163373ffffffffffffffffffffffffffffffffffffffff1614610fc9576040517f08c379a0000000000000000000000000000000000000000000000000000000008152600401610fc09061215c565b60405180910390fd5b60008083815260200190815260200160002060040160009054906101000a900460ff1661102b576040517f08c379a000000000000000000000000000000000000000000000000000000000815260040161102290611d49565b60405180910390fd5b80600080848152602001908152602001600020600001908161104d9190612388565b50817fb4f15c3897eb5bbf1ad316503dd2ce97c41094d3d805a9c490a670496f45f0c38260405161107e91906120ee565b60405180910390a25050565b600260009054906101000a900473ffffffffffffffffffffffffffffffffffffffff1681565b606080600080600080600087815260200190815260200160002060040160009054906101000a900460ff1661111a576040517f08c379a000000000000000000000000000000000000000000000000000000000815260040161111190611d49565b60405180910390fd5b600080600088815260200190815260200160002090508060000181600101826005015483600601548460070160009054906101000a900460ff16848054611160906121ab565b80601f016020809104026020016040519081016040528092919081815260200182805461118c906121ab565b80156111d95780601f106111ae576101008083540402835291602001916111d9565b820191906000526020600020905b8154815290600101906020018083116111bc57829003601f168201915b5050505050945083805480602002602001604051908101604052809291908181526020016000905b828210156112ad578382906000526020600020018054611220906121ab565b80601f016020809104026020016040519081016040528092919081815260200182805461124c906121ab565b80156112995780601f1061126e57610100808354040283529160200191611299565b820191906000526020600020905b81548152906001019060200180831161127c57829003601f168201915b505050505081526020019060010190611201565b505050509350955095509550955095505091939590929450565b600080600084815260200190815260200160002060040160009054906101000a900460ff1661132b576040517f08c379a000000000000000000000000000000000000000000000000000000000815260040161132290611d49565b60405180910390fd5b6000808481526020019081526020016000206002018260405161134e9190612074565b908152602001604051809103902054905092915050565b600081604051602001611378919061274b565b604051602081830303815290604052805190602001209050919050565b6000806000806113a485611404565b925092509250600186848484604051600081526020016040526040516113cd949392919061279c565b6020604051602081039080840390855afa1580156113ef573d6000803e3d6000fd5b50505060206040510351935050505092915050565b6000806000604184511461144d576040517f08c379a00000000000000000000000000000000000000000000000000000000081526004016114449061282d565b60405180910390fd5b60008060006020870151925060408701519150606087015160001a90508083839550955095505050509193909250565b6000604051905090565b600080fd5b600080fd5b6000819050919050565b6114a481611491565b81146114af57600080fd5b50565b6000813590506114c18161149b565b92915050565b600080fd5b600080fd5b6000601f19601f8301169050919050565b7f4e487b7100000000000000000000000000000000000000000000000000000000600052604160045260246000fd5b61151a826114d1565b810181811067ffffffffffffffff82111715611539576115386114e2565b5b80604052505050565b600061154c61147d565b90506115588282611511565b919050565b600067ffffffffffffffff821115611578576115776114e2565b5b611581826114d1565b9050602081019050919050565b82818337600083830152505050565b60006115b06115ab8461155d565b611542565b9050828152602081018484840111156115cc576115cb6114cc565b5b6115d784828561158e565b509392505050565b600082601f8301126115f4576115f36114c7565b5b813561160484826020860161159d565b91505092915050565b600073ffffffffffffffffffffffffffffffffffffffff82169050919050565b60006116388261160d565b9050919050565b6116488161162d565b811461165357600080fd5b50565b6000813590506116658161163f565b92915050565b600067ffffffffffffffff821115611686576116856114e2565b5b61168f826114d1565b9050602081019050919050565b60006116af6116aa8461166b565b611542565b9050828152602081018484840111156116cb576116ca6114cc565b5b6116d684828561158e565b509392505050565b600082601f8301126116f3576116f26114c7565b5b813561170384826020860161169c565b91505092915050565b6000806000806080858703121561172657611725611487565b5b6000611734878288016114b2565b945050602085013567ffffffffffffffff8111156117555761175461148c565b5b611761878288016115df565b935050604061177287828801611656565b925050606085013567ffffffffffffffff8111156117935761179261148c565b5b61179f878288016116de565b91505092959194509250565b600080604083850312156117c2576117c1611487565b5b60006117d0858286016114b2565b925050602083013567ffffffffffffffff8111156117f1576117f061148c565b5b6117fd858286016115df565b9150509250929050565b60006020828403121561181d5761181c611487565b5b600061182b848285016114b2565b91505092915050565b600081519050919050565b600082825260208201905092915050565b6000819050602082019050919050565b600081519050919050565b600082825260208201905092915050565b60005b8381101561189a57808201518184015260208101905061187f565b60008484015250505050565b60006118b182611860565b6118bb818561186b565b93506118cb81856020860161187c565b6118d4816114d1565b840191505092915050565b60006118eb83836118a6565b905092915050565b6000602082019050919050565b600061190b82611834565b611915818561183f565b93508360208202850161192785611850565b8060005b85811015611963578484038952815161194485826118df565b945061194f836118f3565b925060208a0199505060018101905061192b565b50829750879550505050505092915050565b6000602082019050818103600083015261198f8184611900565b905092915050565b600080604083850312156119ae576119ad611487565b5b60006119bc858286016114b2565b92505060206119cd85828601611656565b9150509250929050565b60008115159050919050565b6119ec816119d7565b82525050565b6000602082019050611a0760008301846119e3565b92915050565b600067ffffffffffffffff821115611a2857611a276114e2565b5b602082029050602081019050919050565b600080fd5b6000611a51611a4c84611a0d565b611542565b90508083825260208201905060208402830185811115611a7457611a73611a39565b5b835b81811015611abb57803567ffffffffffffffff811115611a9957611a986114c7565b5b808601611aa689826115df565b85526020850194505050602081019050611a76565b5050509392505050565b600082601f830112611ada57611ad96114c7565b5b8135611aea848260208601611a3e565b91505092915050565b60008060008060808587031215611b0d57611b0c611487565b5b600085013567ffffffffffffffff811115611b2b57611b2a61148c565b5b611b37878288016115df565b945050602085013567ffffffffffffffff811115611b5857611b5761148c565b5b611b6487828801611ac5565b9350506040611b75878288016114b2565b9250506060611b86878288016114b2565b91505092959194509250565b611b9b81611491565b82525050565b6000602082019050611bb66000830184611b92565b92915050565b611bc58161162d565b82525050565b6000602082019050611be06000830184611bbc565b92915050565b600082825260208201905092915050565b6000611c0282611860565b611c0c8185611be6565b9350611c1c81856020860161187c565b611c25816114d1565b840191505092915050565b600060a0820190508181036000830152611c4a8188611bf7565b90508181036020830152611c5e8187611900565b9050611c6d6040830186611b92565b611c7a6060830185611b92565b611c8760808301846119e3565b9695505050505050565b7f4f6e6c792072656c617965722063616e2063616c6c20766f74654d6574610000600082015250565b6000611cc7601e83611be6565b9150611cd282611c91565b602082019050919050565b60006020820190508181036000830152611cf681611cba565b9050919050565b7f456c656374696f6e20646f6573206e6f74206578697374000000000000000000600082015250565b6000611d33601783611be6565b9150611d3e82611cfd565b602082019050919050565b60006020820190508181036000830152611d6281611d26565b9050919050565b7f456c656374696f6e2069732064697361626c6564000000000000000000000000600082015250565b6000611d9f601483611be6565b9150611daa82611d69565b602082019050919050565b60006020820190508181036000830152611dce81611d92565b9050919050565b7f546f6f206561726c7920746f20766f7465000000000000000000000000000000600082015250565b6000611e0b601183611be6565b9150611e1682611dd5565b602082019050919050565b60006020820190508181036000830152611e3a81611dfe565b9050919050565b7f566f74696e6720706572696f642068617320656e646564000000000000000000600082015250565b6000611e77601783611be6565b9150611e8282611e41565b602082019050919050565b60006020820190508181036000830152611ea681611e6a565b9050919050565b7f566f7465722068617320616c726561647920766f746564000000000000000000600082015250565b6000611ee3601783611be6565b9150611eee82611ead565b602082019050919050565b60006020820190508181036000830152611f1281611ed6565b9050919050565b6000819050919050565b611f34611f2f82611491565b611f19565b82525050565b600081905092915050565b6000611f5082611860565b611f5a8185611f3a565b9350611f6a81856020860161187c565b80840191505092915050565b60008160601b9050919050565b6000611f8e82611f76565b9050919050565b6000611fa082611f83565b9050919050565b611fb8611fb38261162d565b611f95565b82525050565b6000611fca8287611f23565b602082019150611fda8286611f45565b9150611fe68285611fa7565b601482019150611ff68284611fa7565b60148201915081905095945050505050565b7f496e76616c6964207369676e6174757265000000000000000000000000000000600082015250565b600061203e601183611be6565b915061204982612008565b602082019050919050565b6000602082019050818103600083015261206d81612031565b9050919050565b60006120808284611f45565b915081905092915050565b7f4e487b7100000000000000000000000000000000000000000000000000000000600052601160045260246000fd5b60006120c582611491565b91506120d083611491565b92508282019050808211156120e8576120e761208b565b5b92915050565b600060208201905081810360008301526121088184611bf7565b905092915050565b7f4f6e6c792072656c617965722063616e20656469740000000000000000000000600082015250565b6000612146601583611be6565b915061215182612110565b602082019050919050565b6000602082019050818103600083015261217581612139565b9050919050565b7f4e487b7100000000000000000000000000000000000000000000000000000000600052602260045260246000fd5b600060028204905060018216806121c357607f821691505b6020821081036121d6576121d561217c565b5b50919050565b60008190508160005260206000209050919050565b60006020601f8301049050919050565b600082821b905092915050565b60006008830261223e7fffffffffffffffffffffffffffffffffffffffffffffffffffffffffffffffff82612201565b6122488683612201565b95508019841693508086168417925050509392505050565b6000819050919050565b600061228561228061227b84611491565b612260565b611491565b9050919050565b6000819050919050565b61229f8361226a565b6122b36122ab8261228c565b84845461220e565b825550505050565b600090565b6122c86122bb565b6122d3818484612296565b505050565b5b818110156122f7576122ec6000826122c0565b6001810190506122d9565b5050565b601f82111561233c5761230d816121dc565b612316846121f1565b81016020851015612325578190505b612339612331856121f1565b8301826122d8565b50505b505050565b600082821c905092915050565b600061235f60001984600802612341565b1980831691505092915050565b6000612378838361234e565b9150826002028217905092915050565b61239182611860565b67ffffffffffffffff8111156123aa576123a96114e2565b5b6123b482546121ab565b6123bf8282856122fb565b600060209050601f8311600181146123f257600084156123e0578287015190505b6123ea858261236c565b865550612452565b601f198416612400866121dc565b60005b8281101561242857848901518255600182019150602085019450602081019050612403565b868310156124455784890151612441601f89168261234e565b8355505b6001600288020188555050505b505050505050565b7f4f6e6c792072656c617965722063616e20637265617465000000000000000000600082015250565b6000612490601783611be6565b915061249b8261245a565b602082019050919050565b600060208201905081810360008301526124bf81612483565b9050919050565b7f656e6454696d65206d757374206265203e20737461727454696d650000000000600082015250565b60006124fc601b83611be6565b9150612507826124c6565b602082019050919050565b6000602082019050818103600083015261252b816124ef565b9050919050565b600061253d82611491565b91507fffffffffffffffffffffffffffffffffffffffffffffffffffffffffffffffff820361256f5761256e61208b565b5b600182019050919050565b7f4e487b7100000000000000000000000000000000000000000000000000000000600052603260045260246000fd5b600060808201905081810360008301526125c38187611bf7565b905081810360208301526125d78186611900565b90506125e66040830185611b92565b6125f36060830184611b92565b95945050505050565b7f4f6e6c792072656c617965722063616e2064697361626c650000000000000000600082015250565b6000612632601883611be6565b915061263d826125fc565b602082019050919050565b6000602082019050818103600083015261266181612625565b9050919050565b7f4f6e6c792072656c617965722063616e20656e61626c65000000000000000000600082015250565b600061269e601783611be6565b91506126a982612668565b602082019050919050565b600060208201905081810360008301526126cd81612691565b9050919050565b7f19457468657265756d205369676e6564204d6573736167653a0a333200000000600082015250565b600061270a601c83611f3a565b9150612715826126d4565b601c82019050919050565b6000819050919050565b6000819050919050565b61274561274082612720565b61272a565b82525050565b6000612756826126fd565b91506127628284612734565b60208201915081905092915050565b61277a81612720565b82525050565b600060ff82169050919050565b61279681612780565b82525050565b60006080820190506127b16000830187612771565b6127be602083018661278d565b6127cb6040830185612771565b6127d86060830184612771565b95945050505050565b7f496e76616c6964207369676e6174757265206c656e6774680000000000000000600082015250565b6000612817601883611be6565b9150612822826127e1565b602082019050919050565b600060208201905081810360008301526128468161280a565b905091905056fea2646970667358221220be5a06072c74387b1730fadf005018db75a3ca8db65d0b434bac651e89f98a4c64736f6c63430008140033",
  "linkReferences": {},
  "deployedLinkReferences": {}
}