{
  "_format": "hh-sol-artifact-1",
  "contractName": "Voting",
  "sourceName": "contracts/Voting.sol",
  "abi": [
    {
      "inputs": [
        {
          "internalType": "address",
          "name": "_relayer",
          "type": "address"
        }
      ],
      "stateMutability": "nonpayable",
      "type": "constructor"
    },
    {
      "anonymous": false,
      "inputs": [
        {
          "indexed": true,
          "internalType": "uint256",
          "name": "electionId",
          "type": "uint256"
        },
        {
          "indexed": false,
          "internalType": "string",
          "name": "newCandidate",
          "type": "string"
        }
      ],
      "name": "CandidateAdded",
      "type": "event"
    },
    {
      "anonymous": false,
      "inputs": [
        {
          "indexed": true,
          "internalType": "uint256",
          "name": "electionId",
          "type": "uint256"
        },
        {
          "indexed": false,
          "internalType": "string",
          "name": "name",
          "type": "string"
        },
        {
          "indexed": false,
          "internalType": "string[]",
          "name": "candidates",
          "type": "string[]"
        },
        {
          "indexed": false,
          "internalType": "uint256",
          "name": "startTime",
          "type": "uint256"
        },
        {
          "indexed": false,
          "internalType": "uint256",
          "name": "endTime",
          "type": "uint256"
        }
      ],
      "name": "ElectionCreated",
      "type": "event"
    },
    {
      "anonymous": false,
      "inputs": [
        {
          "indexed": true,
          "internalType": "uint256",
          "name": "electionId",
          "type": "uint256"
        }
      ],
      "name": "ElectionDisabled",
      "type": "event"
    },
    {
      "anonymous": false,
      "inputs": [
        {
          "indexed": true,
          "internalType": "uint256",
          "name": "electionId",
          "type": "uint256"
        }
      ],
      "name": "ElectionEnabled",
      "type": "event"
    },
    {
      "anonymous": false,
      "inputs": [
        {
          "indexed": true,
          "internalType": "uint256",
          "name": "electionId",
          "type": "uint256"
        },
        {
          "indexed": false,
          "internalType": "string",
          "name": "newName",
          "type": "string"
        }
      ],
      "name": "ElectionNameUpdated",
      "type": "event"
    },
    {
      "anonymous": false,
      "inputs": [
        {
          "indexed": true,
          "internalType": "uint256",
          "name": "electionId",
          "type": "uint256"
        },
        {
          "indexed": true,
          "internalType": "address",
          "name": "voter",
          "type": "address"
        },
        {
          "indexed": false,
          "internalType": "string",
          "name": "candidate",
          "type": "string"
        }
      ],
      "name": "VotedMeta",
      "type": "event"
    },
    {
      "inputs": [
        {
          "internalType": "uint256",
          "name": "electionId",
          "type": "uint256"
        },
        {
          "internalType": "string",
          "name": "candidate",
          "type": "string"
        }
      ],
      "name": "addCandidate",
      "outputs": [],
      "stateMutability": "nonpayable",
      "type": "function"
    },
    {
      "inputs": [
        {
          "internalType": "string",
          "name": "name",
          "type": "string"
        },
        {
          "internalType": "string[]",
          "name": "candidateNames",
          "type": "string[]"
        },
        {
          "internalType": "uint256",
          "name": "startTime",
          "type": "uint256"
        },
        {
          "internalType": "uint256",
          "name": "endTime",
          "type": "uint256"
        }
      ],
      "name": "createElection",
      "outputs": [],
      "stateMutability": "nonpayable",
      "type": "function"
    },
    {
      "inputs": [
        {
          "internalType": "uint256",
          "name": "electionId",
          "type": "uint256"
        }
      ],
      "name": "disableElection",
      "outputs": [],
      "stateMutability": "nonpayable",
      "type": "function"
    },
    {
      "inputs": [
        {
          "internalType": "uint256",
          "name": "electionId",
          "type": "uint256"
        }
      ],
      "name": "enableElection",
      "outputs": [],
      "stateMutability": "nonpayable",
      "type": "function"
    },
    {
      "inputs": [
        {
          "internalType": "uint256",
          "name": "electionId",
          "type": "uint256"
        }
      ],
      "name": "getCandidates",
      "outputs": [
        {
          "internalType": "string[]",
          "name": "",
          "type": "string[]"
        }
      ],
      "stateMutability": "view",
      "type": "function"
    },
    {
      "inputs": [
        {
          "internalType": "uint256",
          "name": "electionId",
          "type": "uint256"
        }
      ],
      "name": "getElection",
      "outputs": [
        {
          "internalType": "string",
          "name": "",
          "type": "string"
        },
        {
          "internalType": "string[]",
          "name": "",
          "type": "string[]"
        },
        {
          "internalType": "uint256",
          "name": "",
          "type": "uint256"
        },
        {
          "internalType": "uint256",
          "name": "",
          "type": "uint256"
        },
        {
          "internalType": "bool",
          "name": "",
          "type": "bool"
        }
      ],
      "stateMutability": "view",
      "type": "function"
    },
    {
      "inputs": [
        {
          "internalType": "uint256",
          "name": "electionId",
          "type": "uint256"
        },
        {
          "internalType": "string",
          "name": "candidate",
          "type": "string"
        }
      ],
      "name": "getVoteCount",
      "outputs": [
        {
          "internalType": "uint256",
          "name": "",
          "type": "uint256"
        }
      ],
      "stateMutability": "view",
      "type": "function"
    },
    {
      "inputs": [],
      "name": "nextElectionId",
      "outputs": [
        {
          "internalType": "uint256",
          "name": "",
          "type": "uint256"
        }
      ],
      "stateMutability": "view",
      "type": "function"
    },
    {
      "inputs": [],
      "name": "trustedRelayer",
      "outputs": [
        {
          "internalType": "address",
          "name": "",
          "type": "address"
        }
      ],
      "stateMutability": "view",
      "type": "function"
    },
    {
      "inputs": [
        {
          "internalType": "uint256",
          "name": "electionId",
          "type": "uint256"
        },
        {
          "internalType": "string",
          "name": "newName",
          "type": "string"
        }
      ],
      "name": "updateElectionName",
      "outputs": [],
      "stateMutability": "nonpayable",
      "type": "function"
    },
    {
      "inputs": [
        {
          "internalType": "uint256",
          "name": "electionId",
          "type": "uint256"
        },
        {
          "internalType": "string",
          "name": "candidate",
          "type": "string"
        },
        {
          "internalType": "address",
          "name": "voter",
          "type": "address"
        },
        {
          "internalType": "bytes",
          "name": "signature",
          "type": "bytes"
        }
      ],
      "name": "voteMeta",
      "outputs": [],
      "stateMutability": "nonpayable",
      "type": "function"
    }
  ],
  "bytecode": "0x6080604052600180553480156200001557600080fd5b506040516200283d3803806200283d83398181016040528101906200003b9190620000ed565b80600260006101000a81548173ffffffffffffffffffffffffffffffffffffffff021916908373ffffffffffffffffffffffffffffffffffffffff160217905550506200011f565b600080fd5b600073ffffffffffffffffffffffffffffffffffffffff82169050919050565b6000620000b58262000088565b9050919050565b620000c781620000a8565b8114620000d357600080fd5b50565b600081519050620000e781620000bc565b92915050565b60006020828403121562000106576200010562000083565b5b60006200011684828501620000d6565b91505092915050565b61270e806200012f6000396000f3fe608060405234801561001057600080fd5b50600436106100a95760003560e01c80635313837b116100715780635313837b1461014e5780635c8fe5571461016c5780636f1fe861146101885780638596c226146101a45780639d710777146101c2578063dd61a65d146101f6576100a9565b8063061dbcb3146100ae5780631750a3d0146100ca5780633e39a7a5146100e657806347b01f99146101165780634e429b4d14610132575b600080fd5b6100c860048036038101906100c39190611603565b610226565b005b6100e460048036038101906100df91906116a2565b610634565b005b61010060048036038101906100fb91906116fe565b6107d6565b60405161010d919061186c565b60405180910390f35b610130600480360381019061012b9190611974565b610926565b005b61014c600480360381019061014791906116fe565b610b7e565b005b610156610cd4565b6040516101639190611a22565b60405180910390f35b610186600480360381019061018191906116fe565b610cda565b005b6101a2600480360381019061019d91906116a2565b610e30565b005b6101ac610f81565b6040516101b99190611a4c565b60405180910390f35b6101dc60048036038101906101d791906116fe565b610fa7565b6040516101ed959493929190611acc565b60405180910390f35b610210600480360381019061020b91906116a2565b6111be565b60405161021d9190611a22565b60405180910390f35b600260009054906101000a900473ffffffffffffffffffffffffffffffffffffffff1673ffffffffffffffffffffffffffffffffffffffff163373ffffffffffffffffffffffffffffffffffffffff16146102b6576040517f08c379a00000000000000000000000000000000000000000000000000000000081526004016102ad90611b79565b60405180910390fd5b60008085815260200190815260200160002060040160009054906101000a900460ff16610318576040517f08c379a000000000000000000000000000000000000000000000000000000000815260040161030f90611be5565b60405180910390fd5b600080600086815260200190815260200160002090508060070160009054906101000a900460ff1615610380576040517f08c379a000000000000000000000000000000000000000000000000000000000815260040161037790611c51565b60405180910390fd5b80600501544210156103c7576040517f08c379a00000000000000000000000000000000000000000000000000000000081526004016103be90611cbd565b60405180910390fd5b806006015442111561040e576040517f08c379a000000000000000000000000000000000000000000000000000000000815260040161040590611d29565b60405180910390fd5b8060030160008473ffffffffffffffffffffffffffffffffffffffff1673ffffffffffffffffffffffffffffffffffffffff16815260200190815260200160002060009054906101000a900460ff161561049d576040517f08c379a000000000000000000000000000000000000000000000000000000000815260040161049490611d95565b60405180910390fd5b60006104d28686866040516020016104b793929190611e5a565b6040516020818303038152906040528051906020012061125c565b90508373ffffffffffffffffffffffffffffffffffffffff166104f5828561128c565b73ffffffffffffffffffffffffffffffffffffffff161461054b576040517f08c379a000000000000000000000000000000000000000000000000000000000815260040161054290611edf565b60405180910390fd5b60018260030160008673ffffffffffffffffffffffffffffffffffffffff1673ffffffffffffffffffffffffffffffffffffffff16815260200190815260200160002060006101000a81548160ff021916908315150217905550600182600201866040516105b99190611eff565b908152602001604051809103902060008282546105d69190611f45565b925050819055508373ffffffffffffffffffffffffffffffffffffffff16867f8a4a10578e3efa396e6e42fa898f3928498e68c4c887cbdd0e425020053eac49876040516106249190611f79565b60405180910390a3505050505050565b600260009054906101000a900473ffffffffffffffffffffffffffffffffffffffff1673ffffffffffffffffffffffffffffffffffffffff163373ffffffffffffffffffffffffffffffffffffffff16146106c4576040517f08c379a00000000000000000000000000000000000000000000000000000000081526004016106bb90611fe7565b60405180910390fd5b60008083815260200190815260200160002060040160009054906101000a900460ff16610726576040517f08c379a000000000000000000000000000000000000000000000000000000000815260040161071d90611be5565b60405180910390fd5b6000806000848152602001908152602001600020905080600101829080600181540180825580915050600190039060005260206000200160009091909190915090816107729190612213565b50600081600201836040516107879190611eff565b908152602001604051809103902081905550827fe83b2a43e7e82d975c8a0a6d2f045153c869e111136a34d1889ab7b598e396a3836040516107c99190611f79565b60405180910390a2505050565b606060008083815260200190815260200160002060040160009054906101000a900460ff1661083a576040517f08c379a000000000000000000000000000000000000000000000000000000000815260040161083190611be5565b60405180910390fd5b600080838152602001908152602001600020600101805480602002602001604051908101604052809291908181526020016000905b8282101561091b57838290600052602060002001805461088e90612036565b80601f01602080910402602001604051908101604052809291908181526020018280546108ba90612036565b80156109075780601f106108dc57610100808354040283529160200191610907565b820191906000526020600020905b8154815290600101906020018083116108ea57829003601f168201915b50505050508152602001906001019061086f565b505050509050919050565b600260009054906101000a900473ffffffffffffffffffffffffffffffffffffffff1673ffffffffffffffffffffffffffffffffffffffff163373ffffffffffffffffffffffffffffffffffffffff16146109b6576040517f08c379a00000000000000000000000000000000000000000000000000000000081526004016109ad90612331565b60405180910390fd5b8181116109f8576040517f08c379a00000000000000000000000000000000000000000000000000000000081526004016109ef9061239d565b60405180910390fd5b600060016000815480929190610a0d906123bd565b9190505590506000806000838152602001908152602001600020905085816000019081610a3a9190612213565b5060018160040160006101000a81548160ff02191690831515021790555083816005018190555082816006018190555060008160070160006101000a81548160ff02191690831515021790555060005b8551811015610b375781600101868281518110610aaa57610aa9612405565b5b6020026020010151908060018154018082558091505060019003906000526020600020016000909190919091509081610ae39190612213565b50600082600201878381518110610afd57610afc612405565b5b6020026020010151604051610b129190611eff565b9081526020016040518091039020819055508080610b2f906123bd565b915050610a8a565b50817fcefccaf67e689381c5f84f3244b0d41636efb285a074c5bcb4f6d79c7804553a87878787604051610b6e9493929190612434565b60405180910390a2505050505050565b600260009054906101000a900473ffffffffffffffffffffffffffffffffffffffff1673ffffffffffffffffffffffffffffffffffffffff163373ffffffffffffffffffffffffffffffffffffffff1614610c0e576040517f08c379a0000000000000000000000000000000000000000000000000000000008152600401610c05906124d3565b60405180910390fd5b60008082815260200190815260200160002060040160009054906101000a900460ff16610c70576040517f08c379a0000000000000000000000000000000000000000000000000000000008152600401610c6790611be5565b60405180910390fd5b6000806000838152602001908152602001600020905060018160070160006101000a81548160ff021916908315150217905550817f7cdb4311118a40732727a2c3b4480ce55819735f2f03ad57026a3442ec79196160405160405180910390a25050565b60015481565b600260009054906101000a900473ffffffffffffffffffffffffffffffffffffffff1673ffffffffffffffffffffffffffffffffffffffff163373ffffffffffffffffffffffffffffffffffffffff1614610d6a576040517f08c379a0000000000000000000000000000000000000000000000000000000008152600401610d619061253f565b60405180910390fd5b60008082815260200190815260200160002060040160009054906101000a900460ff16610dcc576040517f08c379a0000000000000000000000000000000000000000000000000000000008152600401610dc390611be5565b60405180910390fd5b6000806000838152602001908152602001600020905060008160070160006101000a81548160ff021916908315150217905550817f6e1fdbc32ff0a4988c4cea5baeabc62169d9d110868bc40e5c6e9d73920c68f960405160405180910390a25050565b600260009054906101000a900473ffffffffffffffffffffffffffffffffffffffff1673ffffffffffffffffffffffffffffffffffffffff163373ffffffffffffffffffffffffffffffffffffffff1614610ec0576040517f08c379a0000000000000000000000000000000000000000000000000000000008152600401610eb790611fe7565b60405180910390fd5b60008083815260200190815260200160002060040160009054906101000a900460ff16610f22576040517f08c379a0000000000000000000000000000000000000000000000000000000008152600401610f1990611be5565b60405180910390fd5b806000808481526020019081526020016000206000019081610f449190612213565b50817fb4f15c3897eb5bbf1ad316503dd2ce97c41094d3d805a9c490a670496f45f0c382604051610f759190611f79565b60405180910390a25050565b600260009054906101000a900473ffffffffffffffffffffffffffffffffffffffff1681565b606080600080600080600087815260200190815260200160002060040160009054906101000a900460ff16611011576040517f08c379a000000000000000000000000000000000000000000000000000000000815260040161100890611be5565b60405180910390fd5b600080600088815260200190815260200160002090508060000181600101826005015483600601548460070160009054906101000a900460ff1684805461105790612036565b80601f016020809104026020016040519081016040528092919081815260200182805461108390612036565b80156110d05780601f106110a5576101008083540402835291602001916110d0565b820191906000526020600020905b8154815290600101906020018083116110b357829003601f168201915b5050505050945083805480602002602001604051908101604052809291908181526020016000905b828210156111a457838290600052602060002001805461111790612036565b80601f016020809104026020016040519081016040528092919081815260200182805461114390612036565b80156111905780601f1061116557610100808354040283529160200191611190565b820191906000526020600020905b81548152906001019060200180831161117357829003601f168201915b5050505050815260200190600101906110f8565b505050509350955095509550955095505091939590929450565b600080600084815260200190815260200160002060040160009054906101000a900460ff16611222576040517f08c379a000000000000000000000000000000000000000000000000000000000815260040161121990611be5565b60405180910390fd5b600080848152602001908152602001600020600201826040516112459190611eff565b908152602001604051809103902054905092915050565b60008160405160200161126f91906125d6565b604051602081830303815290604052805190602001209050919050565b60008060008061129b856112fb565b925092509250600186848484604051600081526020016040526040516112c49493929190612627565b6020604051602081039080840390855afa1580156112e6573d6000803e3d6000fd5b50505060206040510351935050505092915050565b60008060006041845114611344576040517f08c379a000000000000000000000000000000000000000000000000000000000815260040161133b906126b8565b60405180910390fd5b60008060006020870151925060408701519150606087015160001a90508083839550955095505050509193909250565b6000604051905090565b600080fd5b600080fd5b6000819050919050565b61139b81611388565b81146113a657600080fd5b50565b6000813590506113b881611392565b92915050565b600080fd5b600080fd5b6000601f19601f8301169050919050565b7f4e487b7100000000000000000000000000000000000000000000000000000000600052604160045260246000fd5b611411826113c8565b810181811067ffffffffffffffff821117156114305761142f6113d9565b5b80604052505050565b6000611443611374565b905061144f8282611408565b919050565b600067ffffffffffffffff82111561146f5761146e6113d9565b5b611478826113c8565b9050602081019050919050565b82818337600083830152505050565b60006114a76114a284611454565b611439565b9050828152602081018484840111156114c3576114c26113c3565b5b6114ce848285611485565b509392505050565b600082601f8301126114eb576114ea6113be565b5b81356114fb848260208601611494565b91505092915050565b600073ffffffffffffffffffffffffffffffffffffffff82169050919050565b600061152f82611504565b9050919050565b61153f81611524565b811461154a57600080fd5b50565b60008135905061155c81611536565b92915050565b600067ffffffffffffffff82111561157d5761157c6113d9565b5b611586826113c8565b9050602081019050919050565b60006115a66115a184611562565b611439565b9050828152602081018484840111156115c2576115c16113c3565b5b6115cd848285611485565b509392505050565b600082601f8301126115ea576115e96113be565b5b81356115fa848260208601611593565b91505092915050565b6000806000806080858703121561161d5761161c61137e565b5b600061162b878288016113a9565b945050602085013567ffffffffffffffff81111561164c5761164b611383565b5b611658878288016114d6565b93505060406116698782880161154d565b925050606085013567ffffffffffffffff81111561168a57611689611383565b5b611696878288016115d5565b91505092959194509250565b600080604083850312156116b9576116b861137e565b5b60006116c7858286016113a9565b925050602083013567ffffffffffffffff8111156116e8576116e7611383565b5b6116f4858286016114d6565b9150509250929050565b6000602082840312156117145761171361137e565b5b6000611722848285016113a9565b91505092915050565b600081519050919050565b600082825260208201905092915050565b6000819050602082019050919050565b600081519050919050565b600082825260208201905092915050565b60005b83811015611791578082015181840152602081019050611776565b60008484015250505050565b60006117a882611757565b6117b28185611762565b93506117c2818560208601611773565b6117cb816113c8565b840191505092915050565b60006117e2838361179d565b905092915050565b6000602082019050919050565b60006118028261172b565b61180c8185611736565b93508360208202850161181e85611747565b8060005b8581101561185a578484038952815161183b85826117d6565b9450611846836117ea565b925060208a01995050600181019050611822565b50829750879550505050505092915050565b6000602082019050818103600083015261188681846117f7565b905092915050565b600067ffffffffffffffff8211156118a9576118a86113d9565b5b602082029050602081019050919050565b600080fd5b60006118d26118cd8461188e565b611439565b905080838252602082019050602084028301858111156118f5576118f46118ba565b5b835b8181101561193c57803567ffffffffffffffff81111561191a576119196113be565b5b80860161192789826114d6565b855260208501945050506020810190506118f7565b5050509392505050565b600082601f83011261195b5761195a6113be565b5b813561196b8482602086016118bf565b91505092915050565b6000806000806080858703121561198e5761198d61137e565b5b600085013567ffffffffffffffff8111156119ac576119ab611383565b5b6119b8878288016114d6565b945050602085013567ffffffffffffffff8111156119d9576119d8611383565b5b6119e587828801611946565b93505060406119f6878288016113a9565b9250506060611a07878288016113a9565b91505092959194509250565b611a1c81611388565b82525050565b6000602082019050611a376000830184611a13565b92915050565b611a4681611524565b82525050565b6000602082019050611a616000830184611a3d565b92915050565b600082825260208201905092915050565b6000611a8382611757565b611a8d8185611a67565b9350611a9d818560208601611773565b611aa6816113c8565b840191505092915050565b60008115159050919050565b611ac681611ab1565b82525050565b600060a0820190508181036000830152611ae68188611a78565b90508181036020830152611afa81876117f7565b9050611b096040830186611a13565b611b166060830185611a13565b611b236080830184611abd565b9695505050505050565b7f4f6e6c792072656c617965722063616e2063616c6c20766f74654d6574610000600082015250565b6000611b63601e83611a67565b9150611b6e82611b2d565b602082019050919050565b60006020820190508181036000830152611b9281611b56565b9050919050565b7f456c656374696f6e20646f6573206e6f74206578697374000000000000000000600082015250565b6000611bcf601783611a67565b9150611bda82611b99565b602082019050919050565b60006020820190508181036000830152611bfe81611bc2565b9050919050565b7f456c656374696f6e2069732064697361626c6564000000000000000000000000600082015250565b6000611c3b601483611a67565b9150611c4682611c05565b602082019050919050565b60006020820190508181036000830152611c6a81611c2e565b9050919050565b7f546f6f206561726c7920746f20766f7465000000000000000000000000000000600082015250565b6000611ca7601183611a67565b9150611cb282611c71565b602082019050919050565b60006020820190508181036000830152611cd681611c9a565b9050919050565b7f566f74696e6720706572696f642068617320656e646564000000000000000000600082015250565b6000611d13601783611a67565b9150611d1e82611cdd565b602082019050919050565b60006020820190508181036000830152611d4281611d06565b9050919050565b7f566f7465722068617320616c726561647920766f746564000000000000000000600082015250565b6000611d7f601783611a67565b9150611d8a82611d49565b602082019050919050565b60006020820190508181036000830152611dae81611d72565b9050919050565b6000819050919050565b611dd0611dcb82611388565b611db5565b82525050565b600081905092915050565b6000611dec82611757565b611df68185611dd6565b9350611e06818560208601611773565b80840191505092915050565b60008160601b9050919050565b6000611e2a82611e12565b9050919050565b6000611e3c82611e1f565b9050919050565b611e54611e4f82611524565b611e31565b82525050565b6000611e668286611dbf565b602082019150611e768285611de1565b9150611e828284611e43565b601482019150819050949350505050565b7f496e76616c6964207369676e6174757265000000000000000000000000000000600082015250565b6000611ec9601183611a67565b9150611ed482611e93565b602082019050919050565b60006020820190508181036000830152611ef881611ebc565b9050919050565b6000611f0b8284611de1565b915081905092915050565b7f4e487b7100000000000000000000000000000000000000000000000000000000600052601160045260246000fd5b6000611f5082611388565b9150611f5b83611388565b9250828201905080821115611f7357611f72611f16565b5b92915050565b60006020820190508181036000830152611f938184611a78565b905092915050565b7f4f6e6c792072656c617965722063616e20656469740000000000000000000000600082015250565b6000611fd1601583611a67565b9150611fdc82611f9b565b602082019050919050565b6000602082019050818103600083015261200081611fc4565b9050919050565b7f4e487b7100000000000000000000000000000000000000000000000000000000600052602260045260246000fd5b6000600282049050600182168061204e57607f821691505b60208210810361206157612060612007565b5b50919050565b60008190508160005260206000209050919050565b60006020601f8301049050919050565b600082821b905092915050565b6000600883026120c97fffffffffffffffffffffffffffffffffffffffffffffffffffffffffffffffff8261208c565b6120d3868361208c565b95508019841693508086168417925050509392505050565b6000819050919050565b600061211061210b61210684611388565b6120eb565b611388565b9050919050565b6000819050919050565b61212a836120f5565b61213e61213682612117565b848454612099565b825550505050565b600090565b612153612146565b61215e818484612121565b505050565b5b818110156121825761217760008261214b565b600181019050612164565b5050565b601f8211156121c75761219881612067565b6121a18461207c565b810160208510156121b0578190505b6121c46121bc8561207c565b830182612163565b50505b505050565b600082821c905092915050565b60006121ea600019846008026121cc565b1980831691505092915050565b600061220383836121d9565b9150826002028217905092915050565b61221c82611757565b67ffffffffffffffff811115612235576122346113d9565b5b61223f8254612036565b61224a828285612186565b600060209050601f83116001811461227d576000841561226b578287015190505b61227585826121f7565b8655506122dd565b601f19841661228b86612067565b60005b828110156122b35784890151825560018201915060208501945060208101905061228e565b868310156122d057848901516122cc601f8916826121d9565b8355505b6001600288020188555050505b505050505050565b7f4f6e6c792072656c617965722063616e20637265617465000000000000000000600082015250565b600061231b601783611a67565b9150612326826122e5565b602082019050919050565b6000602082019050818103600083015261234a8161230e565b9050919050565b7f656e6454696d65206d757374206265203e20737461727454696d650000000000600082015250565b6000612387601b83611a67565b915061239282612351565b602082019050919050565b600060208201905081810360008301526123b68161237a565b9050919050565b60006123c882611388565b91507fffffffffffffffffffffffffffffffffffffffffffffffffffffffffffffffff82036123fa576123f9611f16565b5b600182019050919050565b7f4e487b7100000000000000000000000000000000000000000000000000000000600052603260045260246000fd5b6000608082019050818103600083015261244e8187611a78565b9050818103602083015261246281866117f7565b90506124716040830185611a13565b61247e6060830184611a13565b95945050505050565b7f4f6e6c792072656c617965722063616e2064697361626c650000000000000000600082015250565b60006124bd601883611a67565b91506124c882612487565b602082019050919050565b600060208201905081810360008301526124ec816124b0565b9050919050565b7f4f6e6c792072656c617965722063616e20656e61626c65000000000000000000600082015250565b6000612529601783611a67565b9150612534826124f3565b602082019050919050565b600060208201905081810360008301526125588161251c565b9050919050565b7f19457468657265756d205369676e6564204d6573736167653a0a333200000000600082015250565b6000612595601c83611dd6565b91506125a08261255f565b601c82019050919050565b6000819050919050565b6000819050919050565b6125d06125cb826125ab565b6125b5565b82525050565b60006125e182612588565b91506125ed82846125bf565b60208201915081905092915050565b612605816125ab565b82525050565b600060ff82169050919050565b6126218161260b565b82525050565b600060808201905061263c60008301876125fc565b6126496020830186612618565b61265660408301856125fc565b61266360608301846125fc565b95945050505050565b7f496e76616c6964207369676e6174757265206c656e6774680000000000000000600082015250565b60006126a2601883611a67565b91506126ad8261266c565b602082019050919050565b600060208201905081810360008301526126d181612695565b905091905056fea26469706673582212204568826a5db1f3b1fc305c02f3cccd329530379b0e66ba0fa82c2acdd6d0186264736f6c63430008140033",
  "linkReferences": {},
  "deployedLinkReferences": {}
}